{
  "_format": "hh-sol-artifact-1",
  "contractName": "ProofOfDonation",
  "sourceName": "contracts/nftcelo.sol",
  "abi": [
    {
      "inputs": [],
      "stateMutability": "nonpayable",
      "type": "constructor"
    },
    {
      "anonymous": false,
      "inputs": [
        {
          "indexed": true,
          "internalType": "address",
          "name": "owner",
          "type": "address"
        },
        {
          "indexed": true,
          "internalType": "address",
          "name": "approved",
          "type": "address"
        },
        {
          "indexed": true,
          "internalType": "uint256",
          "name": "tokenId",
          "type": "uint256"
        }
      ],
      "name": "Approval",
      "type": "event"
    },
    {
      "anonymous": false,
      "inputs": [
        {
          "indexed": true,
          "internalType": "address",
          "name": "owner",
          "type": "address"
        },
        {
          "indexed": true,
          "internalType": "address",
          "name": "operator",
          "type": "address"
        },
        {
          "indexed": false,
          "internalType": "bool",
          "name": "approved",
          "type": "bool"
        }
      ],
      "name": "ApprovalForAll",
      "type": "event"
    },
    {
      "anonymous": false,
      "inputs": [
        {
          "indexed": true,
          "internalType": "address",
          "name": "previousOwner",
          "type": "address"
        },
        {
          "indexed": true,
          "internalType": "address",
          "name": "newOwner",
          "type": "address"
        }
      ],
      "name": "OwnershipTransferred",
      "type": "event"
    },
    {
      "anonymous": false,
      "inputs": [
        {
          "indexed": true,
          "internalType": "address",
          "name": "from",
          "type": "address"
        },
        {
          "indexed": true,
          "internalType": "address",
          "name": "to",
          "type": "address"
        },
        {
          "indexed": true,
          "internalType": "uint256",
          "name": "tokenId",
          "type": "uint256"
        }
      ],
      "name": "Transfer",
      "type": "event"
    },
    {
      "inputs": [
        {
          "internalType": "address",
          "name": "poolContractAddress",
          "type": "address"
        },
        {
          "internalType": "string",
          "name": "uri",
          "type": "string"
        }
      ],
      "name": "addPool",
      "outputs": [],
      "stateMutability": "nonpayable",
      "type": "function"
    },
    {
      "inputs": [
        {
          "internalType": "address",
          "name": "to",
          "type": "address"
        },
        {
          "internalType": "uint256",
          "name": "tokenId",
          "type": "uint256"
        }
      ],
      "name": "approve",
      "outputs": [],
      "stateMutability": "nonpayable",
      "type": "function"
    },
    {
      "inputs": [
        {
          "internalType": "address",
          "name": "owner",
          "type": "address"
        }
      ],
      "name": "balanceOf",
      "outputs": [
        {
          "internalType": "uint256",
          "name": "",
          "type": "uint256"
        }
      ],
      "stateMutability": "view",
      "type": "function"
    },
    {
      "inputs": [
        {
          "internalType": "uint256",
          "name": "tokenId",
          "type": "uint256"
        }
      ],
      "name": "burn",
      "outputs": [],
      "stateMutability": "nonpayable",
      "type": "function"
    },
    {
      "inputs": [
        {
          "internalType": "uint256",
          "name": "tokenId",
          "type": "uint256"
        }
      ],
      "name": "getApproved",
      "outputs": [
        {
          "internalType": "address",
          "name": "",
          "type": "address"
        }
      ],
      "stateMutability": "view",
      "type": "function"
    },
    {
      "inputs": [
        {
          "internalType": "address",
          "name": "owner",
          "type": "address"
        },
        {
          "internalType": "address",
          "name": "operator",
          "type": "address"
        }
      ],
      "name": "isApprovedForAll",
      "outputs": [
        {
          "internalType": "bool",
          "name": "",
          "type": "bool"
        }
      ],
      "stateMutability": "view",
      "type": "function"
    },
    {
      "inputs": [
        {
          "internalType": "address",
          "name": "",
          "type": "address"
        },
        {
          "internalType": "address",
          "name": "",
          "type": "address"
        }
      ],
      "name": "minters",
      "outputs": [
        {
          "internalType": "uint256",
          "name": "",
          "type": "uint256"
        }
      ],
      "stateMutability": "view",
      "type": "function"
    },
    {
      "inputs": [],
      "name": "name",
      "outputs": [
        {
          "internalType": "string",
          "name": "",
          "type": "string"
        }
      ],
      "stateMutability": "view",
      "type": "function"
    },
    {
      "inputs": [],
      "name": "owner",
      "outputs": [
        {
          "internalType": "address",
          "name": "",
          "type": "address"
        }
      ],
      "stateMutability": "view",
      "type": "function"
    },
    {
      "inputs": [
        {
          "internalType": "uint256",
          "name": "tokenId",
          "type": "uint256"
        }
      ],
      "name": "ownerOf",
      "outputs": [
        {
          "internalType": "address",
          "name": "",
          "type": "address"
        }
      ],
      "stateMutability": "view",
      "type": "function"
    },
    {
      "inputs": [
        {
          "internalType": "address",
          "name": "",
          "type": "address"
        }
      ],
      "name": "poolAddressToURI",
      "outputs": [
        {
          "internalType": "string",
          "name": "",
          "type": "string"
        }
      ],
      "stateMutability": "view",
      "type": "function"
    },
    {
      "inputs": [],
      "name": "renounceOwnership",
      "outputs": [],
      "stateMutability": "nonpayable",
      "type": "function"
    },
    {
      "inputs": [
        {
          "internalType": "address",
          "name": "poolContractAddress",
          "type": "address"
        }
      ],
      "name": "safeMint",
      "outputs": [],
      "stateMutability": "nonpayable",
      "type": "function"
    },
    {
      "inputs": [
        {
          "internalType": "address",
          "name": "from",
          "type": "address"
        },
        {
          "internalType": "address",
          "name": "to",
          "type": "address"
        },
        {
          "internalType": "uint256",
          "name": "tokenId",
          "type": "uint256"
        }
      ],
      "name": "safeTransferFrom",
      "outputs": [],
      "stateMutability": "nonpayable",
      "type": "function"
    },
    {
      "inputs": [
        {
          "internalType": "address",
          "name": "from",
          "type": "address"
        },
        {
          "internalType": "address",
          "name": "to",
          "type": "address"
        },
        {
          "internalType": "uint256",
          "name": "tokenId",
          "type": "uint256"
        },
        {
          "internalType": "bytes",
          "name": "_data",
          "type": "bytes"
        }
      ],
      "name": "safeTransferFrom",
      "outputs": [],
      "stateMutability": "nonpayable",
      "type": "function"
    },
    {
      "inputs": [
        {
          "internalType": "address",
          "name": "operator",
          "type": "address"
        },
        {
          "internalType": "bool",
          "name": "approved",
          "type": "bool"
        }
      ],
      "name": "setApprovalForAll",
      "outputs": [],
      "stateMutability": "nonpayable",
      "type": "function"
    },
    {
      "inputs": [
        {
          "internalType": "bytes4",
          "name": "interfaceId",
          "type": "bytes4"
        }
      ],
      "name": "supportsInterface",
      "outputs": [
        {
          "internalType": "bool",
          "name": "",
          "type": "bool"
        }
      ],
      "stateMutability": "view",
      "type": "function"
    },
    {
      "inputs": [],
      "name": "symbol",
      "outputs": [
        {
          "internalType": "string",
          "name": "",
          "type": "string"
        }
      ],
      "stateMutability": "view",
      "type": "function"
    },
    {
      "inputs": [
        {
          "internalType": "uint256",
          "name": "tokenId",
          "type": "uint256"
        }
      ],
      "name": "tokenURI",
      "outputs": [
        {
          "internalType": "string",
          "name": "",
          "type": "string"
        }
      ],
      "stateMutability": "view",
      "type": "function"
    },
    {
      "inputs": [
        {
          "internalType": "address",
          "name": "from",
          "type": "address"
        },
        {
          "internalType": "address",
          "name": "to",
          "type": "address"
        },
        {
          "internalType": "uint256",
          "name": "tokenId",
          "type": "uint256"
        }
      ],
      "name": "transferFrom",
      "outputs": [],
      "stateMutability": "nonpayable",
      "type": "function"
    },
    {
      "inputs": [
        {
          "internalType": "address",
          "name": "newOwner",
          "type": "address"
        }
      ],
      "name": "transferOwnership",
      "outputs": [],
      "stateMutability": "nonpayable",
      "type": "function"
    }
  ],
  "bytecode": "0x60806040523480156200001157600080fd5b506040518060400160405280600f81526020017f50726f6f664f66446f6e6174696f6e00000000000000000000000000000000008152506040518060400160405280600381526020017f504f440000000000000000000000000000000000000000000000000000000000815250816000908051906020019062000096929190620001a6565b508060019080519060200190620000af929190620001a6565b505050620000d2620000c6620000d860201b60201c565b620000e060201b60201c565b620002bb565b600033905090565b6000600760009054906101000a900473ffffffffffffffffffffffffffffffffffffffff16905081600760006101000a81548173ffffffffffffffffffffffffffffffffffffffff021916908373ffffffffffffffffffffffffffffffffffffffff1602179055508173ffffffffffffffffffffffffffffffffffffffff168173ffffffffffffffffffffffffffffffffffffffff167f8be0079c531659141344cd1fd0a4f28419497f9722a3daafe3b4186f6b6457e060405160405180910390a35050565b828054620001b49062000256565b90600052602060002090601f016020900481019282620001d8576000855562000224565b82601f10620001f357805160ff191683800117855562000224565b8280016001018555821562000224579182015b828111156200022357825182559160200191906001019062000206565b5b50905062000233919062000237565b5090565b5b808211156200025257600081600090555060010162000238565b5090565b600060028204905060018216806200026f57607f821691505b602082108114156200028657620002856200028c565b5b50919050565b7f4e487b7100000000000000000000000000000000000000000000000000000000600052602260045260246000fd5b6136b480620002cb6000396000f3fe608060405234801561001057600080fd5b50600436106101375760003560e01c8063704dc09b116100b857806395d89b411161007c57806395d89b411461034a578063a22cb46514610368578063b88d4fde14610384578063c87b56dd146103a0578063e985e9c5146103d0578063f2fde38b1461040057610137565b8063704dc09b146102a657806370a08231146102c2578063715018a6146102f25780638da5cb5b146102fc578063939ca6fa1461031a57610137565b806340d097c3116100ff57806340d097c3146101f257806342842e0e1461020e57806342966c681461022a5780636352211e146102465780636df511081461027657610137565b806301ffc9a71461013c57806306fdde031461016c578063081812fc1461018a578063095ea7b3146101ba57806323b872dd146101d6575b600080fd5b610156600480360381019061015191906125d1565b61041c565b6040516101639190612a40565b60405180910390f35b6101746104fe565b6040516101819190612a5b565b60405180910390f35b6101a4600480360381019061019f9190612623565b610590565b6040516101b191906129d9565b60405180910390f35b6101d460048036038101906101cf9190612595565b610615565b005b6101f060048036038101906101eb919061243b565b61072d565b005b61020c600480360381019061020791906123d6565b61078d565b005b6102286004803603810190610223919061243b565b61098e565b005b610244600480360381019061023f9190612623565b6109ae565b005b610260600480360381019061025b9190612623565b610a0a565b60405161026d91906129d9565b60405180910390f35b610290600480360381019061028b91906123ff565b610abc565b60405161029d9190612cdd565b60405180910390f35b6102c060048036038101906102bb9190612541565b610ae1565b005b6102dc60048036038101906102d791906123d6565b610bb5565b6040516102e99190612cdd565b60405180910390f35b6102fa610c6d565b005b610304610cf5565b60405161031191906129d9565b60405180910390f35b610334600480360381019061032f91906123d6565b610d1f565b6040516103419190612a5b565b60405180910390f35b610352610dbf565b60405161035f9190612a5b565b60405180910390f35b610382600480360381019061037d9190612505565b610e51565b005b61039e6004803603810190610399919061248a565b610e67565b005b6103ba60048036038101906103b59190612623565b610ec9565b6040516103c79190612a5b565b60405180910390f35b6103ea60048036038101906103e591906123ff565b610edb565b6040516103f79190612a40565b60405180910390f35b61041a600480360381019061041591906123d6565b610f6f565b005b60007f80ac58cd000000000000000000000000000000000000000000000000000000007bffffffffffffffffffffffffffffffffffffffffffffffffffffffff1916827bffffffffffffffffffffffffffffffffffffffffffffffffffffffff191614806104e757507f5b5e139f000000000000000000000000000000000000000000000000000000007bffffffffffffffffffffffffffffffffffffffffffffffffffffffff1916827bffffffffffffffffffffffffffffffffffffffffffffffffffffffff1916145b806104f757506104f682611067565b5b9050919050565b60606000805461050d90612f33565b80601f016020809104026020016040519081016040528092919081815260200182805461053990612f33565b80156105865780601f1061055b57610100808354040283529160200191610586565b820191906000526020600020905b81548152906001019060200180831161056957829003601f168201915b5050505050905090565b600061059b826110d1565b6105da576040517f08c379a00000000000000000000000000000000000000000000000000000000081526004016105d190612c1d565b60405180910390fd5b6004600083815260200190815260200160002060009054906101000a900473ffffffffffffffffffffffffffffffffffffffff169050919050565b600061062082610a0a565b90508073ffffffffffffffffffffffffffffffffffffffff168373ffffffffffffffffffffffffffffffffffffffff161415610691576040517f08c379a000000000000000000000000000000000000000000000000000000000815260040161068890612c7d565b60405180910390fd5b8073ffffffffffffffffffffffffffffffffffffffff166106b061113d565b73ffffffffffffffffffffffffffffffffffffffff1614806106df57506106de816106d961113d565b610edb565b5b61071e576040517f08c379a000000000000000000000000000000000000000000000000000000000815260040161071590612b5d565b60405180910390fd5b6107288383611145565b505050565b61073e61073861113d565b826111fe565b61077d576040517f08c379a000000000000000000000000000000000000000000000000000000000815260040161077490612c9d565b60405180910390fd5b6107888383836112dc565b505050565b6000600960003373ffffffffffffffffffffffffffffffffffffffff1673ffffffffffffffffffffffffffffffffffffffff16815260200190815260200160002060008373ffffffffffffffffffffffffffffffffffffffff1673ffffffffffffffffffffffffffffffffffffffff168152602001908152602001600020541461081657600080fd5b60006108226008611543565b905061082e6008611551565b80600960003373ffffffffffffffffffffffffffffffffffffffff1673ffffffffffffffffffffffffffffffffffffffff16815260200190815260200160002060008473ffffffffffffffffffffffffffffffffffffffff1673ffffffffffffffffffffffffffffffffffffffff168152602001908152602001600020819055506108b93382611567565b61098a81600a60008573ffffffffffffffffffffffffffffffffffffffff1673ffffffffffffffffffffffffffffffffffffffff168152602001908152602001600020805461090790612f33565b80601f016020809104026020016040519081016040528092919081815260200182805461093390612f33565b80156109805780601f1061095557610100808354040283529160200191610980565b820191906000526020600020905b81548152906001019060200180831161096357829003601f168201915b5050505050611585565b5050565b6109a983838360405180602001604052806000815250610e67565b505050565b6109bf6109b961113d565b826111fe565b6109fe576040517f08c379a00000000000000000000000000000000000000000000000000000000081526004016109f590612cbd565b60405180910390fd5b610a07816115f9565b50565b6000806002600084815260200190815260200160002060009054906101000a900473ffffffffffffffffffffffffffffffffffffffff169050600073ffffffffffffffffffffffffffffffffffffffff168173ffffffffffffffffffffffffffffffffffffffff161415610ab3576040517f08c379a0000000000000000000000000000000000000000000000000000000008152600401610aaa90612b9d565b60405180910390fd5b80915050919050565b6009602052816000526040600020602052806000526040600020600091509150505481565b610ae961113d565b73ffffffffffffffffffffffffffffffffffffffff16610b07610cf5565b73ffffffffffffffffffffffffffffffffffffffff1614610b5d576040517f08c379a0000000000000000000000000000000000000000000000000000000008152600401610b5490612c3d565b60405180910390fd5b80600a60008473ffffffffffffffffffffffffffffffffffffffff1673ffffffffffffffffffffffffffffffffffffffff1681526020019081526020016000209080519060200190610bb09291906121ba565b505050565b60008073ffffffffffffffffffffffffffffffffffffffff168273ffffffffffffffffffffffffffffffffffffffff161415610c26576040517f08c379a0000000000000000000000000000000000000000000000000000000008152600401610c1d90612b7d565b60405180910390fd5b600360008373ffffffffffffffffffffffffffffffffffffffff1673ffffffffffffffffffffffffffffffffffffffff168152602001908152602001600020549050919050565b610c7561113d565b73ffffffffffffffffffffffffffffffffffffffff16610c93610cf5565b73ffffffffffffffffffffffffffffffffffffffff1614610ce9576040517f08c379a0000000000000000000000000000000000000000000000000000000008152600401610ce090612c3d565b60405180910390fd5b610cf36000611605565b565b6000600760009054906101000a900473ffffffffffffffffffffffffffffffffffffffff16905090565b600a6020528060005260406000206000915090508054610d3e90612f33565b80601f0160208091040260200160405190810160405280929190818152602001828054610d6a90612f33565b8015610db75780601f10610d8c57610100808354040283529160200191610db7565b820191906000526020600020905b815481529060010190602001808311610d9a57829003601f168201915b505050505081565b606060018054610dce90612f33565b80601f0160208091040260200160405190810160405280929190818152602001828054610dfa90612f33565b8015610e475780601f10610e1c57610100808354040283529160200191610e47565b820191906000526020600020905b815481529060010190602001808311610e2a57829003601f168201915b5050505050905090565b610e63610e5c61113d565b83836116cb565b5050565b610e78610e7261113d565b836111fe565b610eb7576040517f08c379a0000000000000000000000000000000000000000000000000000000008152600401610eae90612c9d565b60405180910390fd5b610ec384848484611838565b50505050565b6060610ed482611894565b9050919050565b6000600560008473ffffffffffffffffffffffffffffffffffffffff1673ffffffffffffffffffffffffffffffffffffffff16815260200190815260200160002060008373ffffffffffffffffffffffffffffffffffffffff1673ffffffffffffffffffffffffffffffffffffffff16815260200190815260200160002060009054906101000a900460ff16905092915050565b610f7761113d565b73ffffffffffffffffffffffffffffffffffffffff16610f95610cf5565b73ffffffffffffffffffffffffffffffffffffffff1614610feb576040517f08c379a0000000000000000000000000000000000000000000000000000000008152600401610fe290612c3d565b60405180910390fd5b600073ffffffffffffffffffffffffffffffffffffffff168173ffffffffffffffffffffffffffffffffffffffff16141561105b576040517f08c379a000000000000000000000000000000000000000000000000000000000815260040161105290612a9d565b60405180910390fd5b61106481611605565b50565b60007f01ffc9a7000000000000000000000000000000000000000000000000000000007bffffffffffffffffffffffffffffffffffffffffffffffffffffffff1916827bffffffffffffffffffffffffffffffffffffffffffffffffffffffff1916149050919050565b60008073ffffffffffffffffffffffffffffffffffffffff166002600084815260200190815260200160002060009054906101000a900473ffffffffffffffffffffffffffffffffffffffff1673ffffffffffffffffffffffffffffffffffffffff1614159050919050565b600033905090565b816004600083815260200190815260200160002060006101000a81548173ffffffffffffffffffffffffffffffffffffffff021916908373ffffffffffffffffffffffffffffffffffffffff160217905550808273ffffffffffffffffffffffffffffffffffffffff166111b883610a0a565b73ffffffffffffffffffffffffffffffffffffffff167f8c5be1e5ebec7d5bd14f71427d1e84f3dd0314c0f7b2291e5b200ac8c7c3b92560405160405180910390a45050565b6000611209826110d1565b611248576040517f08c379a000000000000000000000000000000000000000000000000000000000815260040161123f90612b3d565b60405180910390fd5b600061125383610a0a565b90508073ffffffffffffffffffffffffffffffffffffffff168473ffffffffffffffffffffffffffffffffffffffff16148061129557506112948185610edb565b5b806112d357508373ffffffffffffffffffffffffffffffffffffffff166112bb84610590565b73ffffffffffffffffffffffffffffffffffffffff16145b91505092915050565b8273ffffffffffffffffffffffffffffffffffffffff166112fc82610a0a565b73ffffffffffffffffffffffffffffffffffffffff1614611352576040517f08c379a000000000000000000000000000000000000000000000000000000000815260040161134990612abd565b60405180910390fd5b600073ffffffffffffffffffffffffffffffffffffffff168273ffffffffffffffffffffffffffffffffffffffff1614156113c2576040517f08c379a00000000000000000000000000000000000000000000000000000000081526004016113b990612afd565b60405180910390fd5b6113cd8383836119e6565b6113d8600082611145565b6001600360008573ffffffffffffffffffffffffffffffffffffffff1673ffffffffffffffffffffffffffffffffffffffff16815260200190815260200160002060008282546114289190612e49565b925050819055506001600360008473ffffffffffffffffffffffffffffffffffffffff1673ffffffffffffffffffffffffffffffffffffffff168152602001908152602001600020600082825461147f9190612dc2565b92505081905550816002600083815260200190815260200160002060006101000a81548173ffffffffffffffffffffffffffffffffffffffff021916908373ffffffffffffffffffffffffffffffffffffffff160217905550808273ffffffffffffffffffffffffffffffffffffffff168473ffffffffffffffffffffffffffffffffffffffff167fddf252ad1be2c89b69c2b068fc378daa952ba7f163c4a11628f55a4df523b3ef60405160405180910390a461153e8383836119eb565b505050565b600081600001549050919050565b6001816000016000828254019250508190555050565b6115818282604051806020016040528060008152506119f0565b5050565b61158e826110d1565b6115cd576040517f08c379a00000000000000000000000000000000000000000000000000000000081526004016115c490612bbd565b60405180910390fd5b806006600084815260200190815260200160002090805190602001906115f49291906121ba565b505050565b61160281611a4b565b50565b6000600760009054906101000a900473ffffffffffffffffffffffffffffffffffffffff16905081600760006101000a81548173ffffffffffffffffffffffffffffffffffffffff021916908373ffffffffffffffffffffffffffffffffffffffff1602179055508173ffffffffffffffffffffffffffffffffffffffff168173ffffffffffffffffffffffffffffffffffffffff167f8be0079c531659141344cd1fd0a4f28419497f9722a3daafe3b4186f6b6457e060405160405180910390a35050565b8173ffffffffffffffffffffffffffffffffffffffff168373ffffffffffffffffffffffffffffffffffffffff16141561173a576040517f08c379a000000000000000000000000000000000000000000000000000000000815260040161173190612b1d565b60405180910390fd5b80600560008573ffffffffffffffffffffffffffffffffffffffff1673ffffffffffffffffffffffffffffffffffffffff16815260200190815260200160002060008473ffffffffffffffffffffffffffffffffffffffff1673ffffffffffffffffffffffffffffffffffffffff16815260200190815260200160002060006101000a81548160ff0219169083151502179055508173ffffffffffffffffffffffffffffffffffffffff168373ffffffffffffffffffffffffffffffffffffffff167f17307eab39ab6107e8899845ad3d59bd9653f200f220920489ca2b5937696c318360405161182b9190612a40565b60405180910390a3505050565b6118438484846112dc565b61184f84848484611a9e565b61188e576040517f08c379a000000000000000000000000000000000000000000000000000000000815260040161188590612a7d565b60405180910390fd5b50505050565b606061189f826110d1565b6118de576040517f08c379a00000000000000000000000000000000000000000000000000000000081526004016118d590612bfd565b60405180910390fd5b60006006600084815260200190815260200160002080546118fe90612f33565b80601f016020809104026020016040519081016040528092919081815260200182805461192a90612f33565b80156119775780601f1061194c57610100808354040283529160200191611977565b820191906000526020600020905b81548152906001019060200180831161195a57829003601f168201915b505050505090506000611988611c35565b905060008151141561199e5781925050506119e1565b6000825111156119d35780826040516020016119bb9291906129b5565b604051602081830303815290604052925050506119e1565b6119dc84611c4c565b925050505b919050565b505050565b505050565b6119fa8383611cf3565b611a076000848484611a9e565b611a46576040517f08c379a0000000000000000000000000000000000000000000000000000000008152600401611a3d90612a7d565b60405180910390fd5b505050565b611a5481611ecd565b6000600660008381526020019081526020016000208054611a7490612f33565b905014611a9b57600660008281526020019081526020016000206000611a9a9190612240565b5b50565b6000611abf8473ffffffffffffffffffffffffffffffffffffffff16611fea565b15611c28578373ffffffffffffffffffffffffffffffffffffffff1663150b7a02611ae861113d565b8786866040518563ffffffff1660e01b8152600401611b0a94939291906129f4565b602060405180830381600087803b158015611b2457600080fd5b505af1925050508015611b5557506040513d601f19601f82011682018060405250810190611b5291906125fa565b60015b611bd8573d8060008114611b85576040519150601f19603f3d011682016040523d82523d6000602084013e611b8a565b606091505b50600081511415611bd0576040517f08c379a0000000000000000000000000000000000000000000000000000000008152600401611bc790612a7d565b60405180910390fd5b805181602001fd5b63150b7a0260e01b7bffffffffffffffffffffffffffffffffffffffffffffffffffffffff1916817bffffffffffffffffffffffffffffffffffffffffffffffffffffffff191614915050611c2d565b600190505b949350505050565b606060405180602001604052806000815250905090565b6060611c57826110d1565b611c96576040517f08c379a0000000000000000000000000000000000000000000000000000000008152600401611c8d90612c5d565b60405180910390fd5b6000611ca0611c35565b90506000815111611cc05760405180602001604052806000815250611ceb565b80611cca8461200d565b604051602001611cdb9291906129b5565b6040516020818303038152906040525b915050919050565b600073ffffffffffffffffffffffffffffffffffffffff168273ffffffffffffffffffffffffffffffffffffffff161415611d63576040517f08c379a0000000000000000000000000000000000000000000000000000000008152600401611d5a90612bdd565b60405180910390fd5b611d6c816110d1565b15611dac576040517f08c379a0000000000000000000000000000000000000000000000000000000008152600401611da390612add565b60405180910390fd5b611db8600083836119e6565b6001600360008473ffffffffffffffffffffffffffffffffffffffff1673ffffffffffffffffffffffffffffffffffffffff1681526020019081526020016000206000828254611e089190612dc2565b92505081905550816002600083815260200190815260200160002060006101000a81548173ffffffffffffffffffffffffffffffffffffffff021916908373ffffffffffffffffffffffffffffffffffffffff160217905550808273ffffffffffffffffffffffffffffffffffffffff16600073ffffffffffffffffffffffffffffffffffffffff167fddf252ad1be2c89b69c2b068fc378daa952ba7f163c4a11628f55a4df523b3ef60405160405180910390a4611ec9600083836119eb565b5050565b6000611ed882610a0a565b9050611ee6816000846119e6565b611ef1600083611145565b6001600360008373ffffffffffffffffffffffffffffffffffffffff1673ffffffffffffffffffffffffffffffffffffffff1681526020019081526020016000206000828254611f419190612e49565b925050819055506002600083815260200190815260200160002060006101000a81549073ffffffffffffffffffffffffffffffffffffffff021916905581600073ffffffffffffffffffffffffffffffffffffffff168273ffffffffffffffffffffffffffffffffffffffff167fddf252ad1be2c89b69c2b068fc378daa952ba7f163c4a11628f55a4df523b3ef60405160405180910390a4611fe6816000846119eb565b5050565b6000808273ffffffffffffffffffffffffffffffffffffffff163b119050919050565b60606000821415612055576040518060400160405280600181526020017f300000000000000000000000000000000000000000000000000000000000000081525090506121b5565b600082905060005b6000821461208757808061207090612f96565b915050600a826120809190612e18565b915061205d565b60008167ffffffffffffffff8111156120c9577f4e487b7100000000000000000000000000000000000000000000000000000000600052604160045260246000fd5b6040519080825280601f01601f1916602001820160405280156120fb5781602001600182028036833780820191505090505b5090505b600085146121ae576001826121149190612e49565b9150600a856121239190612fdf565b603061212f9190612dc2565b60f81b81838151811061216b577f4e487b7100000000000000000000000000000000000000000000000000000000600052603260045260246000fd5b60200101907effffffffffffffffffffffffffffffffffffffffffffffffffffffffffffff1916908160001a905350600a856121a79190612e18565b94506120ff565b8093505050505b919050565b8280546121c690612f33565b90600052602060002090601f0160209004810192826121e8576000855561222f565b82601f1061220157805160ff191683800117855561222f565b8280016001018555821561222f579182015b8281111561222e578251825591602001919060010190612213565b5b50905061223c9190612280565b5090565b50805461224c90612f33565b6000825580601f1061225e575061227d565b601f01602090049060005260206000209081019061227c9190612280565b5b50565b5b80821115612299576000816000905550600101612281565b5090565b60006122b06122ab84612d1d565b612cf8565b9050828152602081018484840111156122c857600080fd5b6122d3848285612ef1565b509392505050565b60006122ee6122e984612d4e565b612cf8565b90508281526020810184848401111561230657600080fd5b612311848285612ef1565b509392505050565b60008135905061232881613622565b92915050565b60008135905061233d81613639565b92915050565b60008135905061235281613650565b92915050565b60008151905061236781613650565b92915050565b600082601f83011261237e57600080fd5b813561238e84826020860161229d565b91505092915050565b600082601f8301126123a857600080fd5b81356123b88482602086016122db565b91505092915050565b6000813590506123d081613667565b92915050565b6000602082840312156123e857600080fd5b60006123f684828501612319565b91505092915050565b6000806040838503121561241257600080fd5b600061242085828601612319565b925050602061243185828601612319565b9150509250929050565b60008060006060848603121561245057600080fd5b600061245e86828701612319565b935050602061246f86828701612319565b9250506040612480868287016123c1565b9150509250925092565b600080600080608085870312156124a057600080fd5b60006124ae87828801612319565b94505060206124bf87828801612319565b93505060406124d0878288016123c1565b925050606085013567ffffffffffffffff8111156124ed57600080fd5b6124f98782880161236d565b91505092959194509250565b6000806040838503121561251857600080fd5b600061252685828601612319565b92505060206125378582860161232e565b9150509250929050565b6000806040838503121561255457600080fd5b600061256285828601612319565b925050602083013567ffffffffffffffff81111561257f57600080fd5b61258b85828601612397565b9150509250929050565b600080604083850312156125a857600080fd5b60006125b685828601612319565b92505060206125c7858286016123c1565b9150509250929050565b6000602082840312156125e357600080fd5b60006125f184828501612343565b91505092915050565b60006020828403121561260c57600080fd5b600061261a84828501612358565b91505092915050565b60006020828403121561263557600080fd5b6000612643848285016123c1565b91505092915050565b61265581612e7d565b82525050565b61266481612e8f565b82525050565b600061267582612d7f565b61267f8185612d95565b935061268f818560208601612f00565b612698816130cc565b840191505092915050565b60006126ae82612d8a565b6126b88185612da6565b93506126c8818560208601612f00565b6126d1816130cc565b840191505092915050565b60006126e782612d8a565b6126f18185612db7565b9350612701818560208601612f00565b80840191505092915050565b600061271a603283612da6565b9150612725826130dd565b604082019050919050565b600061273d602683612da6565b91506127488261312c565b604082019050919050565b6000612760602583612da6565b915061276b8261317b565b604082019050919050565b6000612783601c83612da6565b915061278e826131ca565b602082019050919050565b60006127a6602483612da6565b91506127b1826131f3565b604082019050919050565b60006127c9601983612da6565b91506127d482613242565b602082019050919050565b60006127ec602c83612da6565b91506127f78261326b565b604082019050919050565b600061280f603883612da6565b915061281a826132ba565b604082019050919050565b6000612832602a83612da6565b915061283d82613309565b604082019050919050565b6000612855602983612da6565b915061286082613358565b604082019050919050565b6000612878602e83612da6565b9150612883826133a7565b604082019050919050565b600061289b602083612da6565b91506128a6826133f6565b602082019050919050565b60006128be603183612da6565b91506128c98261341f565b604082019050919050565b60006128e1602c83612da6565b91506128ec8261346e565b604082019050919050565b6000612904602083612da6565b915061290f826134bd565b602082019050919050565b6000612927602f83612da6565b9150612932826134e6565b604082019050919050565b600061294a602183612da6565b915061295582613535565b604082019050919050565b600061296d603183612da6565b915061297882613584565b604082019050919050565b6000612990603083612da6565b915061299b826135d3565b604082019050919050565b6129af81612ee7565b82525050565b60006129c182856126dc565b91506129cd82846126dc565b91508190509392505050565b60006020820190506129ee600083018461264c565b92915050565b6000608082019050612a09600083018761264c565b612a16602083018661264c565b612a2360408301856129a6565b8181036060830152612a35818461266a565b905095945050505050565b6000602082019050612a55600083018461265b565b92915050565b60006020820190508181036000830152612a7581846126a3565b905092915050565b60006020820190508181036000830152612a968161270d565b9050919050565b60006020820190508181036000830152612ab681612730565b9050919050565b60006020820190508181036000830152612ad681612753565b9050919050565b60006020820190508181036000830152612af681612776565b9050919050565b60006020820190508181036000830152612b1681612799565b9050919050565b60006020820190508181036000830152612b36816127bc565b9050919050565b60006020820190508181036000830152612b56816127df565b9050919050565b60006020820190508181036000830152612b7681612802565b9050919050565b60006020820190508181036000830152612b9681612825565b9050919050565b60006020820190508181036000830152612bb681612848565b9050919050565b60006020820190508181036000830152612bd68161286b565b9050919050565b60006020820190508181036000830152612bf68161288e565b9050919050565b60006020820190508181036000830152612c16816128b1565b9050919050565b60006020820190508181036000830152612c36816128d4565b9050919050565b60006020820190508181036000830152612c56816128f7565b9050919050565b60006020820190508181036000830152612c768161291a565b9050919050565b60006020820190508181036000830152612c968161293d565b9050919050565b60006020820190508181036000830152612cb681612960565b9050919050565b60006020820190508181036000830152612cd681612983565b9050919050565b6000602082019050612cf260008301846129a6565b92915050565b6000612d02612d13565b9050612d0e8282612f65565b919050565b6000604051905090565b600067ffffffffffffffff821115612d3857612d3761309d565b5b612d41826130cc565b9050602081019050919050565b600067ffffffffffffffff821115612d6957612d6861309d565b5b612d72826130cc565b9050602081019050919050565b600081519050919050565b600081519050919050565b600082825260208201905092915050565b600082825260208201905092915050565b600081905092915050565b6000612dcd82612ee7565b9150612dd883612ee7565b9250827fffffffffffffffffffffffffffffffffffffffffffffffffffffffffffffffff03821115612e0d57612e0c613010565b5b828201905092915050565b6000612e2382612ee7565b9150612e2e83612ee7565b925082612e3e57612e3d61303f565b5b828204905092915050565b6000612e5482612ee7565b9150612e5f83612ee7565b925082821015612e7257612e71613010565b5b828203905092915050565b6000612e8882612ec7565b9050919050565b60008115159050919050565b60007fffffffff0000000000000000000000000000000000000000000000000000000082169050919050565b600073ffffffffffffffffffffffffffffffffffffffff82169050919050565b6000819050919050565b82818337600083830152505050565b60005b83811015612f1e578082015181840152602081019050612f03565b83811115612f2d576000848401525b50505050565b60006002820490506001821680612f4b57607f821691505b60208210811415612f5f57612f5e61306e565b5b50919050565b612f6e826130cc565b810181811067ffffffffffffffff82111715612f8d57612f8c61309d565b5b80604052505050565b6000612fa182612ee7565b91507fffffffffffffffffffffffffffffffffffffffffffffffffffffffffffffffff821415612fd457612fd3613010565b5b600182019050919050565b6000612fea82612ee7565b9150612ff583612ee7565b9250826130055761300461303f565b5b828206905092915050565b7f4e487b7100000000000000000000000000000000000000000000000000000000600052601160045260246000fd5b7f4e487b7100000000000000000000000000000000000000000000000000000000600052601260045260246000fd5b7f4e487b7100000000000000000000000000000000000000000000000000000000600052602260045260246000fd5b7f4e487b7100000000000000000000000000000000000000000000000000000000600052604160045260246000fd5b6000601f19601f8301169050919050565b7f4552433732313a207472616e7366657220746f206e6f6e20455243373231526560008201527f63656976657220696d706c656d656e7465720000000000000000000000000000602082015250565b7f4f776e61626c653a206e6577206f776e657220697320746865207a65726f206160008201527f6464726573730000000000000000000000000000000000000000000000000000602082015250565b7f4552433732313a207472616e736665722066726f6d20696e636f72726563742060008201527f6f776e6572000000000000000000000000000000000000000000000000000000602082015250565b7f4552433732313a20746f6b656e20616c7265616479206d696e74656400000000600082015250565b7f4552433732313a207472616e7366657220746f20746865207a65726f2061646460008201527f7265737300000000000000000000000000000000000000000000000000000000602082015250565b7f4552433732313a20617070726f766520746f2063616c6c657200000000000000600082015250565b7f4552433732313a206f70657261746f7220717565727920666f72206e6f6e657860008201527f697374656e7420746f6b656e0000000000000000000000000000000000000000602082015250565b7f4552433732313a20617070726f76652063616c6c6572206973206e6f74206f7760008201527f6e6572206e6f7220617070726f76656420666f7220616c6c0000000000000000602082015250565b7f4552433732313a2062616c616e636520717565727920666f7220746865207a6560008201527f726f206164647265737300000000000000000000000000000000000000000000602082015250565b7f4552433732313a206f776e657220717565727920666f72206e6f6e657869737460008201527f656e7420746f6b656e0000000000000000000000000000000000000000000000602082015250565b7f45524337323155524953746f726167653a2055524920736574206f66206e6f6e60008201527f6578697374656e7420746f6b656e000000000000000000000000000000000000602082015250565b7f4552433732313a206d696e7420746f20746865207a65726f2061646472657373600082015250565b7f45524337323155524953746f726167653a2055524920717565727920666f722060008201527f6e6f6e6578697374656e7420746f6b656e000000000000000000000000000000602082015250565b7f4552433732313a20617070726f76656420717565727920666f72206e6f6e657860008201527f697374656e7420746f6b656e0000000000000000000000000000000000000000602082015250565b7f4f776e61626c653a2063616c6c6572206973206e6f7420746865206f776e6572600082015250565b7f4552433732314d657461646174613a2055524920717565727920666f72206e6f60008201527f6e6578697374656e7420746f6b656e0000000000000000000000000000000000602082015250565b7f4552433732313a20617070726f76616c20746f2063757272656e74206f776e6560008201527f7200000000000000000000000000000000000000000000000000000000000000602082015250565b7f4552433732313a207472616e736665722063616c6c6572206973206e6f74206f60008201527f776e6572206e6f7220617070726f766564000000000000000000000000000000602082015250565b7f4552433732314275726e61626c653a2063616c6c6572206973206e6f74206f7760008201527f6e6572206e6f7220617070726f76656400000000000000000000000000000000602082015250565b61362b81612e7d565b811461363657600080fd5b50565b61364281612e8f565b811461364d57600080fd5b50565b61365981612e9b565b811461366457600080fd5b50565b61367081612ee7565b811461367b57600080fd5b5056fea2646970667358221220f747cb36788dccd2251eadfa97b06e8304c263ef018b02cc4257d0db16db495964736f6c63430008010033",
  "linkReferences": {},
  "deployedLinkReferences": {}
}